:0400000094EF0AF07F
:100800000001000A006400E8031027252E32642D41
:10081000252E32642D25642C20252E32643A252E77
:1008200032643A252E32640D0054686520445331F9
:100830003330372070726F6772616D6D6564203D73
:100840002025640D0A000000C7A403D0176A172AE8
:1008500001D0176AC5501F0B17100009D8A4F4D790
:10086000C580C5B0FED7C5B0FED7C7A403D0176AF0
:10087000172A01D0176AC5501F0B17100009D8A4FA
:10088000F4D7D00E8EEC09F0C7B4FED7C5BCE7D1C3
:10089000C7A403D0176A172A01D0176AC5501F0BC7
:1008A00017100009D8A4F4D7000E8EEC09F0C7B4D5
:1008B000FED7C5BCD4D109C0D9FF0AC0DAFF3B0EB0
:1008C000DF6401D0CCD109C0D9FF0AC0DAFFDF5004
:1008D000176E1750016E026A000E046E0A0E036E48
:1008E0003CEC09F001501A6E09C0D9FF0AC0DAFFCA
:1008F000DF50176E1A500A0DF3500008186E1A38A0
:10090000F00B18241724196E199EC7A403D0176A78
:10091000172A01D0176AC5501F0B17100009D8A459
:10092000F4D719508EEC09F0C7B4FED7C5BC97D1E7
:100930000BC0D9FF0CC0DAFF3B0EDF6401D08FD1B2
:100940000BC0D9FF0CC0DAFFDF50176E1750016ED5
:10095000026A000E046E0A0E036E3CEC09F00150B0
:100960001A6E0BC0D9FF0CC0DAFFDF50176E1A5099
:100970000A0DF3500008186E1A38F00B18241724CB
:10098000196EC7A403D0176A172A01D0176AC55079
:100990001F0B17100009D8A4F4D719508EEC09F0DA
:1009A000C7B4FED7C5BC5BD10DC0D9FF0EC0DAFFFE
:1009B000170EDF6401D053D10DC0D9FF0EC0DAFF8E
:1009C000DF50176E1750016E026A000E046E0A0E99
:1009D000036E3CEC09F001501A6E0DC0D9FF0EC039
:1009E000DAFFDF50176E1A500A0DF3500008186E28
:1009F0001A38F00B18241724196E3F0E1916C7A4C5
:100A000003D0176A172A01D0176AC5501F0B171099
:100A10000009D8A4F4D719508EEC09F0C7B4FED75A
:100A2000C5BC1DD10FC0D9FF10C0DAFF070EDF64AF
:100A300001D015D10FC0D9FF10C0DAFFDF50D8B4F4
:100A40000ED10FC0D9FF10C0DAFFDF50176E17505C
:100A5000016E026A000E046E0A0E036E3CEC09F091
:100A600001501A6E0FC0D9FF10C0DAFFDF50176EA9
:100A70001A500A0DF3500008186E1A38F00B18249B
:100A80001724196EC7A403D0176A172A01D0176A52
:100A9000C5501F0B17100009D8A4F4D719508EECBD
:100AA00009F0C7B4FED7C5BCDAD011C0D9FF12C057
:100AB000DAFF1F0EDF6401D0D2D011C0D9FF12C0FF
:100AC000DAFFDF50176E1750016E026A000E046ED7
:100AD0000A0E036E3CEC09F001501A6E11C0D9FFEA
:100AE00012C0DAFFDF50176E1A500A0DF3500008DB
:100AF000186E1A38F00B18241724196EC7A403D0E7
:100B0000176A172A01D0176AC5501F0B1710000962
:100B1000D8A4F4D719508EEC09F0C7B4FED7C5BCE1
:100B20009ED013C0D9FF14C0DAFF0C0EDF6401D0D1
:100B300096D013C0D9FF14C0DAFFDF50176E1750DC
:100B4000016E026A000E046E0A0E036E3CEC09F0A0
:100B500001501A6E13C0D9FF14C0DAFFDF50176EB0
:100B60001A500A0DF3500008186E1A38F00B1824AA
:100B70001724196EC7A403D0176A172A01D0176A61
:100B8000C5501F0B17100009D8A4F4D719508EECCC
:100B900009F0C7B4FED7C5BC62D015C0D9FF16C0D6
:100BA000DAFF630EDF6401D05AD015C0D9FF16C03A
:100BB000DAFFDF50176E1750016E026A000E046EE6
:100BC0000A0E036E3CEC09F001501A6E15C0D9FFF5
:100BD00016C0DAFFDF50176E1A500A0DF3500008E6
:100BE000186E1A38F00B18241724196EC7A403D0F6
:100BF000176A172A01D0176AC5501F0B1710000972
:100C0000D8A4F4D719508EEC09F0C7B4FED7C5BCF0
:100C100026D0C7A403D0176A172A01D0176AC55077
:100C20001F0B17100009D8A4F4D7000E8EEC09F0A2
:100C3000C7B4FED7C5BC13D0C7A403D0176A172A00
:100C400001D0176AC5501F0B17100009D8A4F4D79C
:100C5000C584C5B4FED7C5B4FED7010E1200C7A423
:100C600003D0176A172A01D0176AC5501F0B171037
:100C70000009D8A4F4D7C584C5B4FED7C5B4FED73F
:100C8000000E1200C7A403D0116A112A01D0116A04
:100C9000C5501F0B11100009D8A4F4D7C580C5B0EA
:100CA000FED7C5B0FED7C7A403D0116A112A01D060
:100CB000116AC5501F0B11100009D8A4F4D7D00E2B
:100CC0008EEC09F0C7B4FED7C5BC36D1C7A403D09B
:100CD000116A112A01D0116AC5501F0B11100009A9
:100CE000D8A4F4D7000E8EEC09F0C7B4FED7C5BC6B
:100CF00023D1C7A403D0116A112A01D0116AC550AB
:100D00001F0B11100009D8A4F4D7C582C5B2FED7B5
:100D1000C5B2FED7C7A403D0116A112A01D0116A47
:100D2000C5501F0B11100009D8A4F4D7D10E8EECBA
:100D300009F0C7B4FED7C5BCFFD0C7A403D0116A61
:100D4000112A01D0116AC5501F0B11100009D8A437
:100D5000F4D740EC0AF0126E12380F0B070B0A0D95
:100D600012500F0BF32403C0D9FF04C0DAFFDF6E6B
:100D7000C59AC588C5B8FED7C5B8FED7C7A403D0E5
:100D8000116A112A01D0116AC5501F0B11100009F8
:100D9000D8A4F4D740EC0AF0126E12380F0B070BF0
:100DA0000A0D12500F0BF32405C0D9FF06C0DAFF5D
:100DB000DF6EC59AC588C5B8FED7C5B8FED7C7A42B
:100DC00003D0116A112A01D0116AC5501F0B1110EE
:100DD0000009D8A4F4D740EC0AF0126E12380F0BB9
:100DE000030B0A0D12500F0BF32407C0D9FF08C0E4
:100DF000DAFFDF6EC59AC588C5B8FED7C5B8FED77D
:100E0000C7A403D0116A112A01D0116AC5501F0B63
:100E100011100009D8A4F4D740EC0AF0126E125059
:100E2000070B09C0D9FF0AC0DAFFDF6EC59AC58873
:100E3000C5B8FED7C5B8FED7C7A403D0116A112A1A
:100E400001D0116AC5501F0B11100009D8A4F4D7A6
:100E500040EC0AF0126E12380F0B030B0A0D125001
:100E60000F0BF3240BC0D9FF0CC0DAFFDF6EC59A5D
:100E7000C588C5B8FED7C5B8FED7C7A403D0116AC8
:100E8000112A01D0116AC5501F0B11100009D8A4F6
:100E9000F4D740EC0AF0126E12380F0B010B0A0D5A
:100EA00012500F0BF3240DC0D9FF0EC0DAFFDF6E16
:100EB000C59AC588C5B8FED7C5B8FED7C7A403D0A4
:100EC000116A112A01D0116AC5501F0B11100009B7
:100ED000D8A4F4D740EC0AF0126E12380F0B0A0DAA
:100EE00012500F0BF3240FC0D9FF10C0DAFFDF6ED2
:100EF000C7A403D0116A112A01D0116AC5501F0B73
:100F000011100009D8A4F4D7C58AC588C5B8FED782
:100F1000C5B8FED7C7A403D0116A112A01D0116A3F
:100F2000C5501F0B11100009D8A4F4D7C584C5B44F
:100F3000FED7C5A41200FDD703C0D9FF04C0DAFF55
:100F4000000EDF6E05C0D9FF06C0DAFF000EDF6EAF
:100F500007C0D9FF08C0DAFF000EDF6E09C0D9FF55
:100F60000AC0DAFF000EDF6E0BC0D9FF0CC0DAFF3B
:100F7000010EDF6E0DC0D9FF0EC0DAFF010EDF6E6D
:100F80000FC0D9FF10C0DAFF000EDF6EC7A403D078
:100F9000116A112A01D0116AC5501F0B11100009E6
:100FA000D8A4F4D7C584C5B4FED7C5A41200FDD714
:100FB000000E2C6E1D0E2B6ECBD03450250AD8B4EB
:100FC00004D034508DEC0AF0C3D0000E2D6E1BC03F
:100FD000F6FF1CC0F7FF0800F5502E0AD8A41FD05A
:100FE0001B4A1C2A000E336E0FD01BC0F6FF1CC01C
:100FF000F7FF0800F5CF29F033500A0DF3502924EC
:10100000D00F336E1B4A1C2A1BC0F6FF1CC0F7FF13
:101010000800F55054EC0AF0D8A003D0E6D7000E33
:10102000336E1BC0F6FF1CC0F7FF1B4A1C2A0800CA
:10103000F5CF34F03450000AD8B41200640AD8B4A2
:1010400003D00D0AD8A484D02BC0D9FF2CC0DAFF5E
:10105000DECF2EF0DDCF2FF0020E2B26000E2C223D
:101060002F50800AF36E800EF35C000ED8B42E5C15
:10107000D8B006D0030E2D122E6C2F1ED8B02F2AFA
:10108000336604D02F502E10D8B4332A010E346E9C
:101090003450050AD8B416D03450020D010EF32492
:1010A000F66E080EF420F76E0900F5CF29F009005E
:1010B000F5CF2AF029502E5C2A502F58D8A002D004
:1010C000342AE6D73450800A296E3350800A295CCE
:1010D000D8B003D033C034F009D03350800A296E21
:1010E0003450800A295CD8A034C033F02DC029F0D8
:1010F000030E2916D8B428D02D0E8DEC0AF024D07A
:101100003350020D010EF324F66E080EF420F76E34
:101110000900F5CF03F00A00F5CF04F02EC001F06E
:101120002FC002F0F6EC09F001C008F002C009F08F
:10113000000E0B6E0A0E0A6E1FEC0AF00850300FFC
:10114000346E34508DEC0AF033063328D8A4D8D747
:101150001BC0F6FF1CC0F7FF1B4A1C2A0800F5CF76
:1011600034F034662AD71200000E396E000E3A6E43
:101170000C0E3B6E050E386E010E3C6E010E3D6E80
:101180000F0E3E6E9AEC0AF071EC0AF085EC0AF054
:10119000080E1C6E290E1B6E000E0A6E390E096EAB
:1011A000000E0C6E3A0E0B6E000E0E6E3B0E0D6EA8
:1011B000000E106E380E0F6E000E126E3C0E116E89
:1011C000000E146E3D0E136E000E166E3E0E156E62
:1011D00024EC04F0356E35501D6E1E6AD8EC07F015
:1011E000000E046E390E036E000E066E3A0E056E8A
:1011F000000E086E3B0E076E000E0A6E380E096E6A
:10120000000E0C6E3C0E0B6E000E0E6E3D0E0D6E43
:10121000000E106E3E0E0F6E42EC06F0080E1C6EB5
:101220000B0E1B6E3DC01DF01E6A3CC01FF0206AF5
:101230003EC021F0226A3BC023F0246A3AC025F068
:10124000266A39C027F0286AD8EC07F0000E376EFE
:10125000000E366E3750800A800F140ED8B4365CFC
:10126000D8B0BED7820E356EDE0EE82EFED7352EF4
:10127000FCD7364A372AEED7000E066E0450800A95
:10128000F36E800EF35C000ED8B4035CD8B006D0C9
:10129000036C041ED8B0042A010E066E0250800AA8
:1012A000F36E800EF35C000ED8B4015CD8B006D0AB
:1012B000016C021ED8B0022A010E061A000E086E3A
:1012C000000E076E04500310D8B41CD0010E056E3A
:1012D00004D0D89003360436052A04AEFAD7D89045
:1012E000073608360350015C04500258D8A005D0D8
:1012F0000350015E0450025A0780D8900432033232
:10130000052EEDD70650D8B404D0076C081ED8B00F
:10131000082A07C001F008C002F01200026E02C0E5
:10132000C9FFC6BE1200C6CF01F00F0E0116015054
:10133000080AD8B40FD0C6CF01F00F0E0116015025
:101340000B0AD8B407D0C6889EA6FED7C7B4120031
:10135000C7501200C6CF01F00F0E01160150080A47
:10136000D8B408D0C6CF01F00F0E011601500B0AF9
:10137000D8A41200C7B0FED7C7A403D0016A012ABF
:1013800001D0016AC5501F0B01100009D8A4F4D781
:10139000C5501200066E000EAC6E000EAB6E06B0AD
:1013A000AC8806A202D0AC8CAB8C06B4AC8E06A680
:1013B00002D0AB8801D0AB8A06B8AC8406BAAB8643
:1013C00006AC02D09D8A01D09D9A06AE02D09D88BF
:1013D00001D09D9801C0AFFF02C003F003C004F02C
:1013E000056A0450B06EAC8AAB8E1200000E066E19
:1013F000000E056E04500310D8B41CD0010E076E09
:1014000004D0D89003360436072A04AEFAD7D89011
:10141000053606360350015C04500258D8A005D0AA
:101420000350015E0450025A0580D8900432033202
:10143000072EEDD705C001F006C002F012000B50D8
:101440000A10D8B418D0010E0C6E04D0D8900A3609
:101450000B360C2A0BAEFAD70A50085C0B50095811
:10146000D8A004D00A50085E0B50095AD8900B320D
:101470000A320C2EF1D708C008F009C009F012009A
:10148000C6CF01F00F0E01160150080AD8B407D0DC
:10149000C6CF01F00F0E011601500B0AD8B4C58655
:1014A000C7A0FED7C9501200036E000E026E3A0E9E
:1014B000035CD8B005D02F0E036402D0010E026E7B
:1014C00002C001F001301200026E3F0EC716000E7E
:1014D000C66E000EC56E0250C6120150C712C68AF3
:1014E00012003C0E076E330E086E08C001F0026A4F
:1014F0000750CAEC09F01200016EACAC03D0AC90FE
:101500003FB2AC8001C0ADFF1200800E016E080E2C
:1015100064EC0AF0130EC86E1200026E02507CECEE
:101520000AF0ACB21200FDD73F6A000EF86E00015F
:0A153000B4EF08F0660ED36E12004F
:020000040020DA
:08000000FFFFFFFFFFFFFFFF00
:020000040030CA
:0E00000000285F3FFFD181FF0FC00FE00F40CF
:00000001FF
