:0400000094EF3BF04E
:10767600C69A1200660ED36E1200026E025047ECD6
:107686003BF0ACB21200FDD7016EACAC03D0AC90AF
:1076960039B2AC8001C0ADFF1200FC0E076E330E8E
:1076A600086E08C001F0026A075026EC3CF0120092
:1076B60032EC3DF00009D8A412007F0E0E6E7F0E4C
:1076C6000D6EE1EC3DF012008A8493948A928A86CC
:1076D60093929396C650F00B0209C66EC79CC69845
:1076E600C68A1200026EC9CF01F09E96C69E02C0DF
:1076F600C9FFC6AE02D0FF0E12009EA6FED7C95025
:107706001200036E000E026E3A0E035CD8B005D06E
:107716002F0E036402D0010E026E02C001F001308A
:10772600120004EE00F014EE00F0EE6AE550E150AF
:10773600FCE1E250FAE1396A000EF86E0001D8EF7A
:107746003BF001500302F3CF05F0F4CF06F00150F1
:107756000402F350062602500302F350062605C023
:1077660001F006C002F012000B500A10D8B418D06F
:10777600010E0C6E04D0D8900A360B360C2A0BAECE
:10778600FAD70A50085C0B500958D8A004D00A5002
:10779600085E0B50095AD8900B320A320C2EF1D7DC
:1077A60008C008F009C009F01200000E356E000E80
:1077B600366E000E376E000E386E3DEC3BF050EC28
:1077C6003BF07E0E0E6EDE0E0D6EE1EC3DF05BECD8
:1077D6003BF035C02CF036C02DF037C02EF038C047
:1077E6002FF052EC3CF0010E3526000E36223722E1
:1077F6003822EFD7000E066E000E056E04500310F9
:10780600D8B41CD0010E076E04D0D89003360436C7
:10781600072A04AEFAD7D890053606360350015C1F
:1078260004500258D8A005D00350015E0450025AF5
:107836000580D89004320332072EEDD705C001F03B
:1078460006C002F01200066E000EAC6E000EAB6EA5
:1078560006B0AC8806A202D0AC8CAB8C06B4AC8E5B
:1078660006A602D0AB8801D0AB8A06B8AC8406BAAD
:10787600AB8606AC02D09D8A01D09D9A06AE02D098
:107886009D8801D09D9801C0AFFF02C003F003C0E0
:1078960004F0056A0450B06EAC8AAB8E12007F0EFF
:1078A6000E6E580E0D6E2CC00FF02DC010F02EC0AF
:1078B60011F02FC012F0E1EC3DF07F0E0E6EA40E1B
:1078C6000D6EE1EC3DF02CC030F02DC031F02EC035
:1078D60032F02FC033F0090ED890303631363236BA
:1078E6003336E82EF9D730C024F031C025F032C047
:1078F60026F033C027F0510EDAEC3CF0346E3450EB
:10790600D8A4120089EC3CF0346E12008A94FF0E63
:1079160075EC3BF0256E2550FE0AD8A4F8D7000E6C
:10792600276E000E266E2750800A7E0F000ED8B4F2
:10793600265CD8B00DD0000E2624D96E060E272060
:10794600DA6EFF0E75EC3BF0DF6E264A272AEBD780
:10795600FF0E75EC3BF0FF0E75EC3BF08A84000ED3
:10796600296E000E286E2950800A7E0F000ED8B4AC
:10797600285CD8B014D07F0E0E6EF70E0D6E000E7A
:107986002824D96E060E2920DA6EDF50246E245084
:107996000F6E106AE1EC3DF0284A292AE4D77E0EE4
:1079A6000E6EBD0E0D6EE1EC3DF0000E1200296E5E
:1079B600000E2A6E8A94FF0E75EC3BF0295075EC8A
:1079C6003BF0275075EC3BF0265075EC3BF025500C
:1079D60075EC3BF0245075EC3BF0950E75EC3BF0E6
:1079E6002DD01A0E286EF80EE82EFED7282EFCD7BC
:1079F60000D02A2A0B0E2A6407D07F0E0E6E6C0E5C
:107A06000D6EE1EC3DF01FD0FF0E75EC3BF02B6EDA
:107A16002B66E7D718D02A2A0B0E2A6407D07F0ECA
:107A26000E6E6C0E0D6EE1EC3DF00DD0FF0E75EC9A
:107A36003BF02B6E2B28D8A406D0EDD72950410A4F
:107A4600D8B4E2D7F3D78A847F0E0E6EE90E0D6E98
:107A56002BC00FF0106AE1EC3DF02B501200000E27
:107A66002E6E000E2D6E8A943BEC3BF067EC3BF0DD
:107A76008A847E0E0E6EFC0E0D6EE1EC3DF0000E5D
:107A86002E6E000E2D6E2E50800A800F0A0ED8B470
:107A96002D5CD8B006D0FF0E75EC3BF02D4A2E2A91
:107AA600F2D7000E2E6E000E2D6E7F0E0E6EC70ED6
:107AB6000D6EE1EC3DF00FD02D4A2E2A2D500A0A0C
:107AC6002E10D8A408D07E0E0E6EA20E0D6EE1EC1E
:107AD6003DF0010E1200000E246E000E256E000E03
:107AE600266E000E276E400EDAEC3CF02C6E2C044F
:107AF600D8A4E2D77F0E0E6E2C0E0D6EE1EC3DF093
:107B0600000E2E6E000E2D6E7F0E0E6ED80E0D6EB2
:107B1600E1EC3DF00FD02D4A2E2A2D500A0A2E10E8
:107B2600D8A408D07E0E0E6EC00E0D6EE1EC3DF0B0
:107B3600010E1200000E246E000E256E000E266E3B
:107B4600000E276E410EDAEC3CF00009D8A4E3D70C
:107B56007F0E0E6E420E0D6EE1EC3DF0000E2E6EA7
:107B6600000E2D6E7F0E0E6E920E0D6EE1EC3DF048
:107B76000FD02D4A2E2A2D500A0A2E10D8A408D02E
:107B86007E0E0E6E830E0D6EE1EC3DF0010E1200C0
:107B9600000E246E020E256E000E266E000E276E57
:107BA600500EDAEC3CF00009D8A4E3D77F0E0E6E37
:107BB600150E0D6EE1EC3DF0000E1200000E186E73
:107BC6000F0E176E46D12350250AD8B404D0235081
:107BD60040EC3BF03ED1000E226E000E216E000EF0
:107BE600206E03D020840D4A0E2A0DC0F6FF0EC06B
:107BF600F7FF0800F550300AD8B4F4D70DC0F6FFE9
:107C06000EC0F7FF0800F55084EC3BF0D8A038D042
:107C1600000E226E000E216E21C001F022C002F07D
:107C2600000E046E0A0E036EA4EC3BF001C021F0B8
:107C360002C022F0D00E136EFF0E146E0DC0F6FFBA
:107C46000EC0F7FF0800F550156E166A135015267C
:107C56001450162215502126165022220D4A0E2A9D
:107C66000DC0F6FF0EC0F7FF0800F55084EC3BF0A0
:107C7600D8A006D0D1D7208E17D0C00E201214D08F
:107C86000DC0F6FF0EC0F7FF0D4A0E2A0800F5CF0D
:107C960023F02350000AD8B41200750AD8B4EDD7E1
:107CA6000D0AD8B4E8D7D5D017C0D9FF18C0DAFF67
:107CB600DECF1BF0DDCF1CF0020E1726000E1822B9
:107CC60038D0010E236E2350050AD8B43AD023507B
:107CD600020D710EF324F66E7E0EF420F76E090087
:107CE600F5CF13F00900F5CF14F013501B5C1450B8
:107CF6001C58D8A026D0232AE6D7010E236E23507F
:107D0600040AD8B41ED02350020D7B0EF324F66E5F
:107D16007E0EF420F76E0900F5CF13F00900F5CFBB
:107D260014F013501B5C14501C58D8A00AD0232AF8
:107D3600E6D72050C00B800AD8B4DFD7400AD8B4A3
:107D4600C0D7800E23BE7F0E136E2150235C2250B7
:107D5600800A1358D8B007D02350215E000E23BEE8
:107D6600FF0E225A04D0000E226E000E216E20A4B1
:107D76000BD022502110D8B415D0300E40EC3BF079
:107D86002106D8A02206F5D722502110D8B40AD051
:107D9600200E40EC3BF02106D8A0220622502110EE
:107DA600D8A4F6D723C01AF050D01A50020D710E7F
:107DB600F324F66E7E0EF420F76E0900F5CF03F07D
:107DC6000A00F5CF04F01BC001F01CC002F0FDEC68
:107DD6003BF001C008F002C009F0000E0B6E0A0E5F
:107DE6000A6EB7EC3BF00850300F236E2BD01BC049
:107DF60001F01CC002F01A50020D7B0EF324F66E41
:107E06007E0EF420F76E0900F5CF03F00A00F5CFD9
:107E160004F0FDEC3BF001500F0B196E1950010DEB
:107E2600B60EF324F66E7F0EF420F76E0800F5CF3B
:107E360023F008D02050C00B800AD8B4D8D7400A07
:107E4600D8B4B3D7235040EC3BF01A061A28D8A46E
:107E5600F1D70DC0F6FF0EC0F7FF0D4A0E2A080037
:107E6600F5CF23F02366AFD612000001000A0064A6
:107E760000E8031027010010000001001053656E92
:107E860064696E6720436F6D6D616E6420313620C4
:107E96004661696C65642E2E2E0D0A0053656E646C
:107EA600696E6720436F6D6D616E64203020466198
:107EB600696C65642E2E2E0D0A0053656E64696E1C
:107EC6006720436F6D6D616E642031204661696C79
:107ED60065642E2E2E0D0A005553415254204D6FC7
:107EE60064756C6520496E697469616C697A65644C
:107EF6002E2E2E0D0A0053656E64696E672044753A
:107F06006D6D7920436C6F636B732E2E0D0A0043E3
:107F16006F6D6D616E6420313620537563636573D2
:107F2600732E2E0D0A00436F6D6D616E6420302036
:107F3600537563636573732E2E0D0A00436F6D6D63
:107F4600616E64203120537563636573732E2E0D45
:107F56000A0052656164696E6720736563746F72A7
:107F66002025750D0A0054696D656F75742045727C
:107F7600726F722E2E2E0D0A004469736B20496EA5
:107F8600697469616C697A65640D0A0053656E648B
:107F9600696E6720434D4431362E2E0D0A00536517
:107FA6006E64696E6720434D4431372E2E0D0A00EC
:107FB6003031323334353637383961626364656659
:107FC6000053656E64696E6720434D44302E2E0D56
:107FD6000A0053656E64696E6720434D44312E2E48
:107FE6000D0A005231203D203078253032780D0AB6
:0A7FF60000307825303278200000BA
:020000040020DA
:08000000FFFFFFFFFFFFFFFF00
:020000040030CA
:0E00000000285F3FFFD181FF0FC00FE00F40CF
:00000001FF
