:040000007FEF04F09A
:100800000048656C6C6F20576F726C64210D0A0094
:100810000000066E000EAC6E000EAB6E06B0AC882B
:1008200006A202D0AC8CAB8C06B4AC8E06A602D06D
:10083000AB8801D0AB8A06B8AC8406BAAB8606ACEE
:1008400002D09D8A01D09D9A06AE02D09D8801D02B
:100850009D9801C0AFFF02C003F003C004F0056A19
:100860000450B06EAC8AAB8E120087EC04F06BECD7
:1008700004F0080E036E010E026E55EC04F0000E3B
:100880000B6E000E0A6E0B50800A800F140ED8B447
:100890000A5CD8B0EED7820E096EDE0EE82EFED7C7
:1008A000092EFCD70A4A0B2AEED7ACA2FED702C00B
:1008B000F6FF03C0F7FF0800F55076EC04F002C025
:1008C000F6FF03C0F7FF024A032A0800F5500009AB
:1008D000D8B41200EAD73C0E076E330E086E08C07B
:1008E00001F0026A075009EC04F01200016EACAC92
:1008F00003D0AC900CB2AC8001C0ADFF12000C6A0A
:10090000000EF86E080EF76E000135EF04F0660E6B
:04091000D36E120090
:020000040020DA
:08000000FFFFFFFFFFFFFFFF00
:020000040030CA
:0E00000000285F3FFFD181FF0FC00FE00F40CF
:00000001FF
